{
  "contractName": "MyContract",
  "abi": [
    {
      "inputs": [
        {
          "internalType": "contract Auth",
          "name": "_auth",
          "type": "address"
        }
      ],
      "stateMutability": "nonpayable",
      "type": "constructor"
    },
    {
      "anonymous": false,
      "inputs": [
        {
          "indexed": true,
          "internalType": "address",
          "name": "account",
          "type": "address"
        },
        {
          "indexed": true,
          "internalType": "address",
          "name": "operator",
          "type": "address"
        },
        {
          "indexed": false,
          "internalType": "bool",
          "name": "approved",
          "type": "bool"
        }
      ],
      "name": "ApprovalForAll",
      "type": "event"
    },
    {
      "anonymous": false,
      "inputs": [
        {
          "indexed": true,
          "internalType": "address",
          "name": "operator",
          "type": "address"
        },
        {
          "indexed": true,
          "internalType": "address",
          "name": "from",
          "type": "address"
        },
        {
          "indexed": true,
          "internalType": "address",
          "name": "to",
          "type": "address"
        },
        {
          "indexed": false,
          "internalType": "uint256[]",
          "name": "ids",
          "type": "uint256[]"
        },
        {
          "indexed": false,
          "internalType": "uint256[]",
          "name": "values",
          "type": "uint256[]"
        }
      ],
      "name": "TransferBatch",
      "type": "event"
    },
    {
      "anonymous": false,
      "inputs": [
        {
          "indexed": true,
          "internalType": "address",
          "name": "operator",
          "type": "address"
        },
        {
          "indexed": true,
          "internalType": "address",
          "name": "from",
          "type": "address"
        },
        {
          "indexed": true,
          "internalType": "address",
          "name": "to",
          "type": "address"
        },
        {
          "indexed": false,
          "internalType": "uint256",
          "name": "id",
          "type": "uint256"
        },
        {
          "indexed": false,
          "internalType": "uint256",
          "name": "value",
          "type": "uint256"
        }
      ],
      "name": "TransferSingle",
      "type": "event"
    },
    {
      "anonymous": false,
      "inputs": [
        {
          "indexed": false,
          "internalType": "string",
          "name": "value",
          "type": "string"
        },
        {
          "indexed": true,
          "internalType": "uint256",
          "name": "id",
          "type": "uint256"
        }
      ],
      "name": "URI",
      "type": "event"
    },
    {
      "inputs": [],
      "name": "addr",
      "outputs": [
        {
          "internalType": "address",
          "name": "",
          "type": "address"
        }
      ],
      "stateMutability": "view",
      "type": "function",
      "constant": true
    },
    {
      "inputs": [
        {
          "internalType": "address",
          "name": "account",
          "type": "address"
        },
        {
          "internalType": "uint256",
          "name": "id",
          "type": "uint256"
        }
      ],
      "name": "balanceOf",
      "outputs": [
        {
          "internalType": "uint256",
          "name": "",
          "type": "uint256"
        }
      ],
      "stateMutability": "view",
      "type": "function",
      "constant": true
    },
    {
      "inputs": [
        {
          "internalType": "address[]",
          "name": "accounts",
          "type": "address[]"
        },
        {
          "internalType": "uint256[]",
          "name": "ids",
          "type": "uint256[]"
        }
      ],
      "name": "balanceOfBatch",
      "outputs": [
        {
          "internalType": "uint256[]",
          "name": "",
          "type": "uint256[]"
        }
      ],
      "stateMutability": "view",
      "type": "function",
      "constant": true
    },
    {
      "inputs": [
        {
          "internalType": "address",
          "name": "account",
          "type": "address"
        },
        {
          "internalType": "address",
          "name": "operator",
          "type": "address"
        }
      ],
      "name": "isApprovedForAll",
      "outputs": [
        {
          "internalType": "bool",
          "name": "",
          "type": "bool"
        }
      ],
      "stateMutability": "view",
      "type": "function",
      "constant": true
    },
    {
      "inputs": [
        {
          "internalType": "address",
          "name": "from",
          "type": "address"
        },
        {
          "internalType": "address",
          "name": "to",
          "type": "address"
        },
        {
          "internalType": "uint256[]",
          "name": "ids",
          "type": "uint256[]"
        },
        {
          "internalType": "uint256[]",
          "name": "amounts",
          "type": "uint256[]"
        },
        {
          "internalType": "bytes",
          "name": "data",
          "type": "bytes"
        }
      ],
      "name": "safeBatchTransferFrom",
      "outputs": [],
      "stateMutability": "nonpayable",
      "type": "function"
    },
    {
      "inputs": [
        {
          "internalType": "address",
          "name": "from",
          "type": "address"
        },
        {
          "internalType": "address",
          "name": "to",
          "type": "address"
        },
        {
          "internalType": "uint256",
          "name": "id",
          "type": "uint256"
        },
        {
          "internalType": "uint256",
          "name": "amount",
          "type": "uint256"
        },
        {
          "internalType": "bytes",
          "name": "data",
          "type": "bytes"
        }
      ],
      "name": "safeTransferFrom",
      "outputs": [],
      "stateMutability": "nonpayable",
      "type": "function"
    },
    {
      "inputs": [
        {
          "internalType": "address",
          "name": "operator",
          "type": "address"
        },
        {
          "internalType": "bool",
          "name": "approved",
          "type": "bool"
        }
      ],
      "name": "setApprovalForAll",
      "outputs": [],
      "stateMutability": "nonpayable",
      "type": "function"
    },
    {
      "inputs": [
        {
          "internalType": "bytes4",
          "name": "interfaceId",
          "type": "bytes4"
        }
      ],
      "name": "supportsInterface",
      "outputs": [
        {
          "internalType": "bool",
          "name": "",
          "type": "bool"
        }
      ],
      "stateMutability": "view",
      "type": "function",
      "constant": true
    },
    {
      "inputs": [
        {
          "internalType": "uint256",
          "name": "",
          "type": "uint256"
        }
      ],
      "name": "uri",
      "outputs": [
        {
          "internalType": "string",
          "name": "",
          "type": "string"
        }
      ],
      "stateMutability": "view",
      "type": "function",
      "constant": true
    },
    {
      "inputs": [
        {
          "internalType": "address",
          "name": "deployerAddress",
          "type": "address"
        },
        {
          "internalType": "uint256",
          "name": "amount",
          "type": "uint256"
        }
      ],
      "name": "mintItem",
      "outputs": [
        {
          "internalType": "uint256",
          "name": "",
          "type": "uint256"
        }
      ],
      "stateMutability": "nonpayable",
      "type": "function"
    }
  ],
  "bytecode": "0x60806040523480156200001157600080fd5b5060405162002b2438038062002b2483398181016040528101906200003791906200018c565b604051806020016040528060008152506200005881620000a960201b60201c565b5080600460006101000a81548173ffffffffffffffffffffffffffffffffffffffff021916908373ffffffffffffffffffffffffffffffffffffffff1602179055506000600581905550506200027f565b8060029080519060200190620000c1929190620000c5565b5050565b828054620000d39062000200565b90600052602060002090601f016020900481019282620000f7576000855562000143565b82601f106200011257805160ff191683800117855562000143565b8280016001018555821562000143579182015b828111156200014257825182559160200191906001019062000125565b5b50905062000152919062000156565b5090565b5b808211156200017157600081600090555060010162000157565b5090565b600081519050620001868162000265565b92915050565b6000602082840312156200019f57600080fd5b6000620001af8482850162000175565b91505092915050565b6000620001c582620001e0565b9050919050565b6000620001d982620001b8565b9050919050565b600073ffffffffffffffffffffffffffffffffffffffff82169050919050565b600060028204905060018216806200021957607f821691505b6020821081141562000230576200022f62000236565b5b50919050565b7f4e487b7100000000000000000000000000000000000000000000000000000000600052602260045260246000fd5b6200027081620001cc565b81146200027c57600080fd5b50565b612895806200028f6000396000f3fe608060405234801561001057600080fd5b506004361061009d5760003560e01c8063767800de11610066578063767800de1461017e578063a22cb4651461019c578063e985e9c5146101b8578063f242432a146101e8578063f6a4a3fd146102045761009d565b8062fdd58e146100a257806301ffc9a7146100d25780630e89341c146101025780632eb2c2d6146101325780634e1273f41461014e575b600080fd5b6100bc60048036038101906100b791906119fd565b610234565b6040516100c99190612379565b60405180910390f35b6100ec60048036038101906100e79190611aa5565b6102fd565b6040516100f991906121dc565b60405180910390f35b61011c60048036038101906101179190611af7565b6103df565b60405161012991906121f7565b60405180910390f35b61014c60048036038101906101479190611873565b610473565b005b61016860048036038101906101639190611a39565b610869565b6040516101759190612183565b60405180910390f35b610186610a1a565b60405161019391906120a6565b60405180910390f35b6101b660048036038101906101b191906119c1565b610a40565b005b6101d260048036038101906101cd9190611837565b610bc1565b6040516101df91906121dc565b60405180910390f35b61020260048036038101906101fd9190611932565b610c55565b005b61021e600480360381019061021991906119fd565b610f6d565b60405161022b9190612379565b60405180910390f35b60008073ffffffffffffffffffffffffffffffffffffffff168373ffffffffffffffffffffffffffffffffffffffff1614156102a5576040517f08c379a000000000000000000000000000000000000000000000000000000000815260040161029c90612259565b60405180910390fd5b60008083815260200190815260200160002060008473ffffffffffffffffffffffffffffffffffffffff1673ffffffffffffffffffffffffffffffffffffffff16815260200190815260200160002054905092915050565b60007fd9b67a26000000000000000000000000000000000000000000000000000000007bffffffffffffffffffffffffffffffffffffffffffffffffffffffff1916827bffffffffffffffffffffffffffffffffffffffffffffffffffffffff191614806103c857507f0e89341c000000000000000000000000000000000000000000000000000000007bffffffffffffffffffffffffffffffffffffffffffffffffffffffff1916827bffffffffffffffffffffffffffffffffffffffffffffffffffffffff1916145b806103d857506103d782610fb1565b5b9050919050565b6060600280546103ee90612627565b80601f016020809104026020016040519081016040528092919081815260200182805461041a90612627565b80156104675780601f1061043c57610100808354040283529160200191610467565b820191906000526020600020905b81548152906001019060200180831161044a57829003601f168201915b50505050509050919050565b81518351146104b7576040517f08c379a00000000000000000000000000000000000000000000000000000000081526004016104ae90612339565b60405180910390fd5b600073ffffffffffffffffffffffffffffffffffffffff168473ffffffffffffffffffffffffffffffffffffffff161415610527576040517f08c379a000000000000000000000000000000000000000000000000000000000815260040161051e90612299565b60405180910390fd5b61052f61101b565b73ffffffffffffffffffffffffffffffffffffffff168573ffffffffffffffffffffffffffffffffffffffff16148061057557506105748561056f61101b565b610bc1565b5b6105b4576040517f08c379a00000000000000000000000000000000000000000000000000000000081526004016105ab906122b9565b60405180910390fd5b60006105be61101b565b90506105ce818787878787611023565b60005b84518110156107d4576000858281518110610615577f4e487b7100000000000000000000000000000000000000000000000000000000600052603260045260246000fd5b60200260200101519050600085838151811061065a577f4e487b7100000000000000000000000000000000000000000000000000000000600052603260045260246000fd5b60200260200101519050600080600084815260200190815260200160002060008b73ffffffffffffffffffffffffffffffffffffffff1673ffffffffffffffffffffffffffffffffffffffff168152602001908152602001600020549050818110156106fb576040517f08c379a00000000000000000000000000000000000000000000000000000000081526004016106f2906122d9565b60405180910390fd5b8181610707919061253d565b60008085815260200190815260200160002060008c73ffffffffffffffffffffffffffffffffffffffff1673ffffffffffffffffffffffffffffffffffffffff168152602001908152602001600020819055508160008085815260200190815260200160002060008b73ffffffffffffffffffffffffffffffffffffffff1673ffffffffffffffffffffffffffffffffffffffff16815260200190815260200160002060008282546107b991906124e7565b92505081905550505050806107cd90612659565b90506105d1565b508473ffffffffffffffffffffffffffffffffffffffff168673ffffffffffffffffffffffffffffffffffffffff168273ffffffffffffffffffffffffffffffffffffffff167f4a39dc06d4c0dbc64b70af90fd698a233a518aa5d07e595d983b8c0526c8f7fb878760405161084b9291906121a5565b60405180910390a461086181878787878761102b565b505050505050565b606081518351146108af576040517f08c379a00000000000000000000000000000000000000000000000000000000081526004016108a690612319565b60405180910390fd5b6000835167ffffffffffffffff8111156108f2577f4e487b7100000000000000000000000000000000000000000000000000000000600052604160045260246000fd5b6040519080825280602002602001820160405280156109205781602001602082028036833780820191505090505b50905060005b8451811015610a0f576109b985828151811061096b577f4e487b7100000000000000000000000000000000000000000000000000000000600052603260045260246000fd5b60200260200101518583815181106109ac577f4e487b7100000000000000000000000000000000000000000000000000000000600052603260045260246000fd5b6020026020010151610234565b8282815181106109f2577f4e487b7100000000000000000000000000000000000000000000000000000000600052603260045260246000fd5b60200260200101818152505080610a0890612659565b9050610926565b508091505092915050565b600360009054906101000a900473ffffffffffffffffffffffffffffffffffffffff1681565b8173ffffffffffffffffffffffffffffffffffffffff16610a5f61101b565b73ffffffffffffffffffffffffffffffffffffffff161415610ab6576040517f08c379a0000000000000000000000000000000000000000000000000000000008152600401610aad906122f9565b60405180910390fd5b8060016000610ac361101b565b73ffffffffffffffffffffffffffffffffffffffff1673ffffffffffffffffffffffffffffffffffffffff16815260200190815260200160002060008473ffffffffffffffffffffffffffffffffffffffff1673ffffffffffffffffffffffffffffffffffffffff16815260200190815260200160002060006101000a81548160ff0219169083151502179055508173ffffffffffffffffffffffffffffffffffffffff16610b7061101b565b73ffffffffffffffffffffffffffffffffffffffff167f17307eab39ab6107e8899845ad3d59bd9653f200f220920489ca2b5937696c3183604051610bb591906121dc565b60405180910390a35050565b6000600160008473ffffffffffffffffffffffffffffffffffffffff1673ffffffffffffffffffffffffffffffffffffffff16815260200190815260200160002060008373ffffffffffffffffffffffffffffffffffffffff1673ffffffffffffffffffffffffffffffffffffffff16815260200190815260200160002060009054906101000a900460ff16905092915050565b600073ffffffffffffffffffffffffffffffffffffffff168473ffffffffffffffffffffffffffffffffffffffff161415610cc5576040517f08c379a0000000000000000000000000000000000000000000000000000000008152600401610cbc90612299565b60405180910390fd5b610ccd61101b565b73ffffffffffffffffffffffffffffffffffffffff168573ffffffffffffffffffffffffffffffffffffffff161480610d135750610d1285610d0d61101b565b610bc1565b5b610d52576040517f08c379a0000000000000000000000000000000000000000000000000000000008152600401610d4990612279565b60405180910390fd5b6000610d5c61101b565b9050610d7c818787610d6d886111fb565b610d76886111fb565b87611023565b600080600086815260200190815260200160002060008873ffffffffffffffffffffffffffffffffffffffff1673ffffffffffffffffffffffffffffffffffffffff16815260200190815260200160002054905083811015610e13576040517f08c379a0000000000000000000000000000000000000000000000000000000008152600401610e0a906122d9565b60405180910390fd5b8381610e1f919061253d565b60008087815260200190815260200160002060008973ffffffffffffffffffffffffffffffffffffffff1673ffffffffffffffffffffffffffffffffffffffff168152602001908152602001600020819055508360008087815260200190815260200160002060008873ffffffffffffffffffffffffffffffffffffffff1673ffffffffffffffffffffffffffffffffffffffff1681526020019081526020016000206000828254610ed191906124e7565b925050819055508573ffffffffffffffffffffffffffffffffffffffff168773ffffffffffffffffffffffffffffffffffffffff168373ffffffffffffffffffffffffffffffffffffffff167fc3d58168c5ae7397731d063d5bbf3d657854427343f4c083240f7aacaa2d0f628888604051610f4e929190612394565b60405180910390a4610f648288888888886112c1565b50505050505050565b6000610f8c836005548460405180602001604052806000815250611491565b600160056000828254610f9f91906124e7565b92505081905550600554905092915050565b60007f01ffc9a7000000000000000000000000000000000000000000000000000000007bffffffffffffffffffffffffffffffffffffffffffffffffffffffff1916827bffffffffffffffffffffffffffffffffffffffffffffffffffffffff1916149050919050565b600033905090565b505050505050565b61104a8473ffffffffffffffffffffffffffffffffffffffff16611627565b156111f3578373ffffffffffffffffffffffffffffffffffffffff1663bc197c8187878686866040518663ffffffff1660e01b81526004016110909594939291906120c1565b602060405180830381600087803b1580156110aa57600080fd5b505af19250505080156110db57506040513d601f19601f820116820180604052508101906110d89190611ace565b60015b61116a576110e761274d565b806110f2575061112f565b806040517f08c379a000000000000000000000000000000000000000000000000000000000815260040161112691906121f7565b60405180910390fd5b6040517f08c379a000000000000000000000000000000000000000000000000000000000815260040161116190612219565b60405180910390fd5b63bc197c8160e01b7bffffffffffffffffffffffffffffffffffffffffffffffffffffffff1916817bffffffffffffffffffffffffffffffffffffffffffffffffffffffff1916146111f1576040517f08c379a00000000000000000000000000000000000000000000000000000000081526004016111e890612239565b60405180910390fd5b505b505050505050565b60606000600167ffffffffffffffff811115611240577f4e487b7100000000000000000000000000000000000000000000000000000000600052604160045260246000fd5b60405190808252806020026020018201604052801561126e5781602001602082028036833780820191505090505b50905082816000815181106112ac577f4e487b7100000000000000000000000000000000000000000000000000000000600052603260045260246000fd5b60200260200101818152505080915050919050565b6112e08473ffffffffffffffffffffffffffffffffffffffff16611627565b15611489578373ffffffffffffffffffffffffffffffffffffffff1663f23a6e6187878686866040518663ffffffff1660e01b8152600401611326959493929190612129565b602060405180830381600087803b15801561134057600080fd5b505af192505050801561137157506040513d601f19601f8201168201806040525081019061136e9190611ace565b60015b6114005761137d61274d565b8061138857506113c5565b806040517f08c379a00000000000000000000000000000000000000000000000000000000081526004016113bc91906121f7565b60405180910390fd5b6040517f08c379a00000000000000000000000000000000000000000000000000000000081526004016113f790612219565b60405180910390fd5b63f23a6e6160e01b7bffffffffffffffffffffffffffffffffffffffffffffffffffffffff1916817bffffffffffffffffffffffffffffffffffffffffffffffffffffffff191614611487576040517f08c379a000000000000000000000000000000000000000000000000000000000815260040161147e90612239565b60405180910390fd5b505b505050505050565b600073ffffffffffffffffffffffffffffffffffffffff168473ffffffffffffffffffffffffffffffffffffffff161415611501576040517f08c379a00000000000000000000000000000000000000000000000000000000081526004016114f890612359565b60405180910390fd5b600061150b61101b565b905061152c8160008761151d886111fb565b611526886111fb565b87611023565b8260008086815260200190815260200160002060008773ffffffffffffffffffffffffffffffffffffffff1673ffffffffffffffffffffffffffffffffffffffff168152602001908152602001600020600082825461158b91906124e7565b925050819055508473ffffffffffffffffffffffffffffffffffffffff16600073ffffffffffffffffffffffffffffffffffffffff168273ffffffffffffffffffffffffffffffffffffffff167fc3d58168c5ae7397731d063d5bbf3d657854427343f4c083240f7aacaa2d0f628787604051611609929190612394565b60405180910390a4611620816000878787876112c1565b5050505050565b600080823b905060008111915050919050565b600061164d611648846123ee565b6123bd565b9050808382526020820190508285602086028201111561166c57600080fd5b60005b8581101561169c57816116828882611750565b84526020840193506020830192505060018101905061166f565b5050509392505050565b60006116b96116b48461241a565b6123bd565b905080838252602082019050828560208602820111156116d857600080fd5b60005b8581101561170857816116ee8882611822565b8452602084019350602083019250506001810190506116db565b5050509392505050565b600061172561172084612446565b6123bd565b90508281526020810184848401111561173d57600080fd5b6117488482856125e5565b509392505050565b60008135905061175f81612803565b92915050565b600082601f83011261177657600080fd5b813561178684826020860161163a565b91505092915050565b600082601f8301126117a057600080fd5b81356117b08482602086016116a6565b91505092915050565b6000813590506117c88161281a565b92915050565b6000813590506117dd81612831565b92915050565b6000815190506117f281612831565b92915050565b600082601f83011261180957600080fd5b8135611819848260208601611712565b91505092915050565b60008135905061183181612848565b92915050565b6000806040838503121561184a57600080fd5b600061185885828601611750565b925050602061186985828601611750565b9150509250929050565b600080600080600060a0868803121561188b57600080fd5b600061189988828901611750565b95505060206118aa88828901611750565b945050604086013567ffffffffffffffff8111156118c757600080fd5b6118d38882890161178f565b935050606086013567ffffffffffffffff8111156118f057600080fd5b6118fc8882890161178f565b925050608086013567ffffffffffffffff81111561191957600080fd5b611925888289016117f8565b9150509295509295909350565b600080600080600060a0868803121561194a57600080fd5b600061195888828901611750565b955050602061196988828901611750565b945050604061197a88828901611822565b935050606061198b88828901611822565b925050608086013567ffffffffffffffff8111156119a857600080fd5b6119b4888289016117f8565b9150509295509295909350565b600080604083850312156119d457600080fd5b60006119e285828601611750565b92505060206119f3858286016117b9565b9150509250929050565b60008060408385031215611a1057600080fd5b6000611a1e85828601611750565b9250506020611a2f85828601611822565b9150509250929050565b60008060408385031215611a4c57600080fd5b600083013567ffffffffffffffff811115611a6657600080fd5b611a7285828601611765565b925050602083013567ffffffffffffffff811115611a8f57600080fd5b611a9b8582860161178f565b9150509250929050565b600060208284031215611ab757600080fd5b6000611ac5848285016117ce565b91505092915050565b600060208284031215611ae057600080fd5b6000611aee848285016117e3565b91505092915050565b600060208284031215611b0957600080fd5b6000611b1784828501611822565b91505092915050565b6000611b2c8383612088565b60208301905092915050565b611b4181612571565b82525050565b6000611b5282612486565b611b5c81856124b4565b9350611b6783612476565b8060005b83811015611b98578151611b7f8882611b20565b9750611b8a836124a7565b925050600181019050611b6b565b5085935050505092915050565b611bae81612583565b82525050565b6000611bbf82612491565b611bc981856124c5565b9350611bd98185602086016125f4565b611be28161272f565b840191505092915050565b6000611bf88261249c565b611c0281856124d6565b9350611c128185602086016125f4565b611c1b8161272f565b840191505092915050565b6000611c336034836124d6565b91507f455243313135353a207472616e7366657220746f206e6f6e204552433131353560008301527f526563656976657220696d706c656d656e7465720000000000000000000000006020830152604082019050919050565b6000611c996028836124d6565b91507f455243313135353a204552433131353552656365697665722072656a6563746560008301527f6420746f6b656e730000000000000000000000000000000000000000000000006020830152604082019050919050565b6000611cff602b836124d6565b91507f455243313135353a2062616c616e636520717565727920666f7220746865207a60008301527f65726f20616464726573730000000000000000000000000000000000000000006020830152604082019050919050565b6000611d656029836124d6565b91507f455243313135353a2063616c6c6572206973206e6f74206f776e6572206e6f7260008301527f20617070726f76656400000000000000000000000000000000000000000000006020830152604082019050919050565b6000611dcb6025836124d6565b91507f455243313135353a207472616e7366657220746f20746865207a65726f20616460008301527f64726573730000000000000000000000000000000000000000000000000000006020830152604082019050919050565b6000611e316032836124d6565b91507f455243313135353a207472616e736665722063616c6c6572206973206e6f742060008301527f6f776e6572206e6f7220617070726f76656400000000000000000000000000006020830152604082019050919050565b6000611e97602a836124d6565b91507f455243313135353a20696e73756666696369656e742062616c616e636520666f60008301527f72207472616e73666572000000000000000000000000000000000000000000006020830152604082019050919050565b6000611efd6029836124d6565b91507f455243313135353a2073657474696e6720617070726f76616c2073746174757360008301527f20666f722073656c6600000000000000000000000000000000000000000000006020830152604082019050919050565b6000611f636029836124d6565b91507f455243313135353a206163636f756e747320616e6420696473206c656e67746860008301527f206d69736d6174636800000000000000000000000000000000000000000000006020830152604082019050919050565b6000611fc96028836124d6565b91507f455243313135353a2069647320616e6420616d6f756e7473206c656e6774682060008301527f6d69736d617463680000000000000000000000000000000000000000000000006020830152604082019050919050565b600061202f6021836124d6565b91507f455243313135353a206d696e7420746f20746865207a65726f2061646472657360008301527f73000000000000000000000000000000000000000000000000000000000000006020830152604082019050919050565b612091816125db565b82525050565b6120a0816125db565b82525050565b60006020820190506120bb6000830184611b38565b92915050565b600060a0820190506120d66000830188611b38565b6120e36020830187611b38565b81810360408301526120f58186611b47565b905081810360608301526121098185611b47565b9050818103608083015261211d8184611bb4565b90509695505050505050565b600060a08201905061213e6000830188611b38565b61214b6020830187611b38565b6121586040830186612097565b6121656060830185612097565b81810360808301526121778184611bb4565b90509695505050505050565b6000602082019050818103600083015261219d8184611b47565b905092915050565b600060408201905081810360008301526121bf8185611b47565b905081810360208301526121d38184611b47565b90509392505050565b60006020820190506121f16000830184611ba5565b92915050565b600060208201905081810360008301526122118184611bed565b905092915050565b6000602082019050818103600083015261223281611c26565b9050919050565b6000602082019050818103600083015261225281611c8c565b9050919050565b6000602082019050818103600083015261227281611cf2565b9050919050565b6000602082019050818103600083015261229281611d58565b9050919050565b600060208201905081810360008301526122b281611dbe565b9050919050565b600060208201905081810360008301526122d281611e24565b9050919050565b600060208201905081810360008301526122f281611e8a565b9050919050565b6000602082019050818103600083015261231281611ef0565b9050919050565b6000602082019050818103600083015261233281611f56565b9050919050565b6000602082019050818103600083015261235281611fbc565b9050919050565b6000602082019050818103600083015261237281612022565b9050919050565b600060208201905061238e6000830184612097565b92915050565b60006040820190506123a96000830185612097565b6123b66020830184612097565b9392505050565b6000604051905081810181811067ffffffffffffffff821117156123e4576123e3612700565b5b8060405250919050565b600067ffffffffffffffff82111561240957612408612700565b5b602082029050602081019050919050565b600067ffffffffffffffff82111561243557612434612700565b5b602082029050602081019050919050565b600067ffffffffffffffff82111561246157612460612700565b5b601f19601f8301169050602081019050919050565b6000819050602082019050919050565b600081519050919050565b600081519050919050565b600081519050919050565b6000602082019050919050565b600082825260208201905092915050565b600082825260208201905092915050565b600082825260208201905092915050565b60006124f2826125db565b91506124fd836125db565b9250827fffffffffffffffffffffffffffffffffffffffffffffffffffffffffffffffff03821115612532576125316126a2565b5b828201905092915050565b6000612548826125db565b9150612553836125db565b925082821015612566576125656126a2565b5b828203905092915050565b600061257c826125bb565b9050919050565b60008115159050919050565b60007fffffffff0000000000000000000000000000000000000000000000000000000082169050919050565b600073ffffffffffffffffffffffffffffffffffffffff82169050919050565b6000819050919050565b82818337600083830152505050565b60005b838110156126125780820151818401526020810190506125f7565b83811115612621576000848401525b50505050565b6000600282049050600182168061263f57607f821691505b60208210811415612653576126526126d1565b5b50919050565b6000612664826125db565b91507fffffffffffffffffffffffffffffffffffffffffffffffffffffffffffffffff821415612697576126966126a2565b5b600182019050919050565b7f4e487b7100000000000000000000000000000000000000000000000000000000600052601160045260246000fd5b7f4e487b7100000000000000000000000000000000000000000000000000000000600052602260045260246000fd5b7f4e487b7100000000000000000000000000000000000000000000000000000000600052604160045260246000fd5b6000601f19601f8301169050919050565b60008160e01c9050919050565b600060443d101561275d57612800565b60046000803e61276e600051612740565b6308c379a0811461277f5750612800565b60405160043d036004823e80513d602482011167ffffffffffffffff821117156127ab57505050612800565b808201805167ffffffffffffffff8111156127ca575050505050612800565b8060208301013d85018111156127e557505050505050612800565b6127ee8261272f565b60208401016040528296505050505050505b90565b61280c81612571565b811461281757600080fd5b50565b61282381612583565b811461282e57600080fd5b50565b61283a8161258f565b811461284557600080fd5b50565b612851816125db565b811461285c57600080fd5b5056fea2646970667358221220a7411e2a5a1a36a350f06ffb45dad0fd3ccf2fc22db885739e27876c9da8019364736f6c63430008000033",
  "immutableReferences": {},
  "source": "pragma solidity ^0.8.0;\r\n\r\nimport \"../node_modules/@openzeppelin/contracts/token/ERC1155/ERC1155.sol\";\r\nimport \"./access-control/Auth.sol\";\r\n\r\ncontract MyContract is ERC1155 {\r\n\r\n\taddress public addr;\r\n\r\n\tAuth private auth;\r\n\r\n\tuint256 tokenIdCount;\r\n\r\n\tconstructor(Auth _auth) public ERC1155(\"\") {\r\n      auth = _auth;\r\n      tokenIdCount = 0;\r\n  \t}\r\n\r\n  \tfunction mintItem(address deployerAddress, uint256 amount)\r\n  \t\tpublic\r\n        returns (uint256)\r\n  \t{\r\n  \t\t_mint(deployerAddress, tokenIdCount, amount, \"\");\r\n  \t\ttokenIdCount += 1;\r\n  \t\treturn tokenIdCount;\r\n  \t}\r\n}",
  "sourcePath": "C:/Users/tlc07/OneDrive/Document/oz_test/contracts/MyContract.sol",
  "compiler": {
    "name": "solc",
    "version": "0.8.0+commit.c7dfd78e.Emscripten.clang"
  },
  "schemaVersion": "3.4.1",
  "updatedAt": "2021-06-01T11:15:16.147Z",
  "networkType": "ethereum",
  "devdoc": {
    "kind": "dev",
    "methods": {
      "balanceOf(address,uint256)": {
        "details": "See {IERC1155-balanceOf}. Requirements: - `account` cannot be the zero address."
      },
      "balanceOfBatch(address[],uint256[])": {
        "details": "See {IERC1155-balanceOfBatch}. Requirements: - `accounts` and `ids` must have the same length."
      },
      "isApprovedForAll(address,address)": {
        "details": "See {IERC1155-isApprovedForAll}."
      },
      "safeBatchTransferFrom(address,address,uint256[],uint256[],bytes)": {
        "details": "See {IERC1155-safeBatchTransferFrom}."
      },
      "safeTransferFrom(address,address,uint256,uint256,bytes)": {
        "details": "See {IERC1155-safeTransferFrom}."
      },
      "setApprovalForAll(address,bool)": {
        "details": "See {IERC1155-setApprovalForAll}."
      },
      "supportsInterface(bytes4)": {
        "details": "See {IERC165-supportsInterface}."
      },
      "uri(uint256)": {
        "details": "See {IERC1155MetadataURI-uri}. This implementation returns the same URI for *all* token types. It relies on the token type ID substitution mechanism https://eips.ethereum.org/EIPS/eip-1155#metadata[defined in the EIP]. Clients calling this function must replace the `\\{id\\}` substring with the actual token type ID."
      }
    },
    "version": 1
  },
  "userdoc": {
    "kind": "user",
    "methods": {},
    "version": 1
  }
}